{
  "_format": "hh-sol-artifact-1",
  "contractName": "Create",
  "sourceName": "contracts/VotingContract.sol",
  "abi": [
    {
      "inputs": [],
      "stateMutability": "nonpayable",
      "type": "constructor"
    },
    {
      "anonymous": false,
      "inputs": [
        {
          "indexed": true,
          "internalType": "uint256",
          "name": "candidateId",
          "type": "uint256"
        },
        {
          "indexed": false,
          "internalType": "string",
          "name": "age",
          "type": "string"
        },
        {
          "indexed": false,
          "internalType": "string",
          "name": "name",
          "type": "string"
        },
        {
          "indexed": false,
          "internalType": "string",
          "name": "image",
          "type": "string"
        },
        {
          "indexed": false,
          "internalType": "uint256",
          "name": "voteCount",
          "type": "uint256"
        },
        {
          "indexed": false,
          "internalType": "address",
          "name": "_address",
          "type": "address"
        },
        {
          "indexed": false,
          "internalType": "string",
          "name": "ipfs",
          "type": "string"
        }
      ],
      "name": "CandidateCreate",
      "type": "event"
    },
    {
      "anonymous": false,
      "inputs": [
        {
          "indexed": true,
          "internalType": "uint256",
          "name": "voter_voterId",
          "type": "uint256"
        },
        {
          "indexed": false,
          "internalType": "string",
          "name": "voter_name",
          "type": "string"
        },
        {
          "indexed": false,
          "internalType": "string",
          "name": "voter_image",
          "type": "string"
        },
        {
          "indexed": false,
          "internalType": "address",
          "name": "voter_address",
          "type": "address"
        },
        {
          "indexed": false,
          "internalType": "uint256",
          "name": "voter_allowed",
          "type": "uint256"
        },
        {
          "indexed": false,
          "internalType": "bool",
          "name": "voter_voted",
          "type": "bool"
        },
        {
          "indexed": false,
          "internalType": "uint256",
          "name": "voter_vote",
          "type": "uint256"
        },
        {
          "indexed": false,
          "internalType": "string",
          "name": "voter_ipfs",
          "type": "string"
        }
      ],
      "name": "VoterCreated",
      "type": "event"
    },
    {
      "inputs": [],
      "name": "_candidateId",
      "outputs": [
        {
          "internalType": "uint256",
          "name": "_value",
          "type": "uint256"
        }
      ],
      "stateMutability": "view",
      "type": "function"
    },
    {
      "inputs": [],
      "name": "_voterId",
      "outputs": [
        {
          "internalType": "uint256",
          "name": "_value",
          "type": "uint256"
        }
      ],
      "stateMutability": "view",
      "type": "function"
    },
    {
      "inputs": [
        {
          "internalType": "uint256",
          "name": "",
          "type": "uint256"
        }
      ],
      "name": "candidateAddress",
      "outputs": [
        {
          "internalType": "address",
          "name": "",
          "type": "address"
        }
      ],
      "stateMutability": "view",
      "type": "function"
    },
    {
      "inputs": [
        {
          "internalType": "address",
          "name": "",
          "type": "address"
        }
      ],
      "name": "candidates",
      "outputs": [
        {
          "internalType": "uint256",
          "name": "candidateId",
          "type": "uint256"
        },
        {
          "internalType": "string",
          "name": "age",
          "type": "string"
        },
        {
          "internalType": "string",
          "name": "name",
          "type": "string"
        },
        {
          "internalType": "string",
          "name": "image",
          "type": "string"
        },
        {
          "internalType": "uint256",
          "name": "voteCount",
          "type": "uint256"
        },
        {
          "internalType": "address",
          "name": "_address",
          "type": "address"
        },
        {
          "internalType": "string",
          "name": "ipfs",
          "type": "string"
        }
      ],
      "stateMutability": "view",
      "type": "function"
    },
    {
      "inputs": [],
      "name": "getCandidate",
      "outputs": [
        {
          "internalType": "address[]",
          "name": "",
          "type": "address[]"
        }
      ],
      "stateMutability": "view",
      "type": "function"
    },
    {
      "inputs": [],
      "name": "getCandidateLength",
      "outputs": [
        {
          "internalType": "uint256",
          "name": "",
          "type": "uint256"
        }
      ],
      "stateMutability": "view",
      "type": "function"
    },
    {
      "inputs": [
        {
          "internalType": "address",
          "name": "_address",
          "type": "address"
        }
      ],
      "name": "getCandidatedata",
      "outputs": [
        {
          "internalType": "string",
          "name": "",
          "type": "string"
        },
        {
          "internalType": "string",
          "name": "",
          "type": "string"
        },
        {
          "internalType": "uint256",
          "name": "",
          "type": "uint256"
        },
        {
          "internalType": "string",
          "name": "",
          "type": "string"
        },
        {
          "internalType": "uint256",
          "name": "",
          "type": "uint256"
        },
        {
          "internalType": "string",
          "name": "",
          "type": "string"
        },
        {
          "internalType": "address",
          "name": "",
          "type": "address"
        }
      ],
      "stateMutability": "view",
      "type": "function"
    },
    {
      "inputs": [],
      "name": "getVotedVoterList",
      "outputs": [
        {
          "internalType": "address[]",
          "name": "",
          "type": "address[]"
        }
      ],
      "stateMutability": "view",
      "type": "function"
    },
    {
      "inputs": [],
      "name": "getVoterLength",
      "outputs": [
        {
          "internalType": "uint256",
          "name": "",
          "type": "uint256"
        }
      ],
      "stateMutability": "view",
      "type": "function"
    },
    {
      "inputs": [],
      "name": "getVoterList",
      "outputs": [
        {
          "internalType": "address[]",
          "name": "",
          "type": "address[]"
        }
      ],
      "stateMutability": "view",
      "type": "function"
    },
    {
      "inputs": [
        {
          "internalType": "address",
          "name": "_address",
          "type": "address"
        }
      ],
      "name": "getVoterdata",
      "outputs": [
        {
          "internalType": "uint256",
          "name": "",
          "type": "uint256"
        },
        {
          "internalType": "string",
          "name": "",
          "type": "string"
        },
        {
          "internalType": "string",
          "name": "",
          "type": "string"
        },
        {
          "internalType": "address",
          "name": "",
          "type": "address"
        },
        {
          "internalType": "string",
          "name": "",
          "type": "string"
        },
        {
          "internalType": "uint256",
          "name": "",
          "type": "uint256"
        },
        {
          "internalType": "bool",
          "name": "",
          "type": "bool"
        }
      ],
      "stateMutability": "view",
      "type": "function"
    },
    {
      "inputs": [
        {
          "internalType": "address",
          "name": "_address",
          "type": "address"
        },
        {
          "internalType": "string",
          "name": "_age",
          "type": "string"
        },
        {
          "internalType": "string",
          "name": "_name",
          "type": "string"
        },
        {
          "internalType": "string",
          "name": "_image",
          "type": "string"
        },
        {
          "internalType": "string",
          "name": "_ipfs",
          "type": "string"
        }
      ],
      "name": "setCandidate",
      "outputs": [],
      "stateMutability": "nonpayable",
      "type": "function"
    },
    {
      "inputs": [
        {
          "internalType": "address",
          "name": "_candidateAddress",
          "type": "address"
        },
        {
          "internalType": "uint256",
          "name": "_candidateVoteId",
          "type": "uint256"
        }
      ],
      "name": "vote",
      "outputs": [],
      "stateMutability": "nonpayable",
      "type": "function"
    },
    {
      "inputs": [
        {
          "internalType": "uint256",
          "name": "",
          "type": "uint256"
        }
      ],
      "name": "votedVoters",
      "outputs": [
        {
          "internalType": "address",
          "name": "",
          "type": "address"
        }
      ],
      "stateMutability": "view",
      "type": "function"
    },
    {
      "inputs": [
        {
          "internalType": "address",
          "name": "_address",
          "type": "address"
        },
        {
          "internalType": "string",
          "name": "_name",
          "type": "string"
        },
        {
          "internalType": "string",
          "name": "_image",
          "type": "string"
        },
        {
          "internalType": "string",
          "name": "_ipfs",
          "type": "string"
        }
      ],
      "name": "voterRight",
      "outputs": [],
      "stateMutability": "nonpayable",
      "type": "function"
    },
    {
      "inputs": [
        {
          "internalType": "address",
          "name": "",
          "type": "address"
        }
      ],
      "name": "voters",
      "outputs": [
        {
          "internalType": "uint256",
          "name": "voter_voterId",
          "type": "uint256"
        },
        {
          "internalType": "string",
          "name": "voter_name",
          "type": "string"
        },
        {
          "internalType": "string",
          "name": "voter_image",
          "type": "string"
        },
        {
          "internalType": "address",
          "name": "voter_address",
          "type": "address"
        },
        {
          "internalType": "uint256",
          "name": "voter_allowed",
          "type": "uint256"
        },
        {
          "internalType": "bool",
          "name": "voter_voted",
          "type": "bool"
        },
        {
          "internalType": "uint256",
          "name": "voter_vote",
          "type": "uint256"
        },
        {
          "internalType": "string",
          "name": "voter_ipfs",
          "type": "string"
        }
      ],
      "stateMutability": "view",
      "type": "function"
    },
    {
      "inputs": [
        {
          "internalType": "uint256",
          "name": "",
          "type": "uint256"
        }
      ],
      "name": "votersAddress",
      "outputs": [
        {
          "internalType": "address",
          "name": "",
          "type": "address"
        }
      ],
      "stateMutability": "view",
      "type": "function"
    },
    {
      "inputs": [],
      "name": "votingOrganizer",
      "outputs": [
        {
          "internalType": "address",
          "name": "",
          "type": "address"
        }
      ],
      "stateMutability": "view",
      "type": "function"
    }
  ],
  "bytecode": "0x608060405234801561001057600080fd5b5033600260006101000a81548173ffffffffffffffffffffffffffffffffffffffff021916908373ffffffffffffffffffffffffffffffffffffffff160217905550612860806100616000396000f3fe608060405234801561001057600080fd5b50600436106101165760003560e01c80638e945685116100a2578063b63c82ca11610071578063b63c82ca14610304578063b9be31521461033a578063c5036fd414610358578063c91ec7121461038e578063f7522a83146103aa57610116565b80638e94568514610273578063a3ec138d14610291578063a7388967146102c8578063b28d92ae146102e657610116565b80635cc48aa7116100e95780635cc48aa7146101b55780635f74bbde146101d357806370218b85146101ef5780637831ffb31461020d5780638ab66a901461023d57610116565b80630361419e1461011b57806305ad45a4146101375780633a88251a1461015557806343242daa14610185575b600080fd5b61013560048036038101906101309190611b7b565b6103c8565b005b61013f610640565b60405161014c9190611c4f565b60405180910390f35b61016f600480360381019061016a9190611c96565b61064d565b60405161017c9190611cd2565b60405180910390f35b61019f600480360381019061019a9190611c96565b61068c565b6040516101ac9190611cd2565b60405180910390f35b6101bd6106cb565b6040516101ca9190611cd2565b60405180910390f35b6101ed60048036038101906101e89190611ced565b6106f1565b005b6101f76108b8565b6040516102049190611deb565b60405180910390f35b61022760048036038101906102229190611c96565b610946565b6040516102349190611cd2565b60405180910390f35b61025760048036038101906102529190611e0d565b610985565b60405161026a9796959493929190611eb9565b60405180910390f35b61027b610c07565b6040516102889190611deb565b60405180910390f35b6102ab60048036038101906102a69190611e0d565b610c95565b6040516102bf989796959493929190611f5f565b60405180910390f35b6102d0610ea2565b6040516102dd9190611c4f565b60405180910390f35b6102ee610eae565b6040516102fb9190611deb565b60405180910390f35b61031e60048036038101906103199190611e0d565b610f3c565b6040516103319796959493929190611ff2565b60405180910390f35b610342611383565b60405161034f9190611c4f565b60405180910390f35b610372600480360381019061036d9190611e0d565b61138f565b604051610385979695949392919061207d565b60405180910390f35b6103a860048036038101906103a39190612101565b611757565b005b6103b2611992565b6040516103bf9190611c4f565b60405180910390f35b3373ffffffffffffffffffffffffffffffffffffffff16600260009054906101000a900473ffffffffffffffffffffffffffffffffffffffff1673ffffffffffffffffffffffffffffffffffffffff1614610458576040517f08c379a000000000000000000000000000000000000000000000000000000000815260040161044f9061225e565b60405180910390fd5b610462600061199f565b600061046e60006119b5565b90506000600760008773ffffffffffffffffffffffffffffffffffffffff1673ffffffffffffffffffffffffffffffffffffffff168152602001908152602001600020905060008160040154146104c457600080fd5b60018160040181905550848160010190816104df919061248a565b50838160020190816104f1919061248a565b50858160030160006101000a81548173ffffffffffffffffffffffffffffffffffffffff021916908373ffffffffffffffffffffffffffffffffffffffff1602179055508181600001819055506103e8816006018190555060008160050160006101000a81548160ff02191690831515021790555082816007019081610577919061248a565b506006869080600181540180825580915050600190039060005260206000200160009091909190916101000a81548173ffffffffffffffffffffffffffffffffffffffff021916908373ffffffffffffffffffffffffffffffffffffffff160217905550817ff5f39971dd62d9929e3a9feaa6bb77fe7c7da0001babff8a65a7e51ad0201c1986868985600401548660050160009054906101000a900460ff1687600601548a604051610630979695949392919061255c565b60405180910390a2505050505050565b6000600680549050905090565b6003818154811061065d57600080fd5b906000526020600020016000915054906101000a900473ffffffffffffffffffffffffffffffffffffffff1681565b6006818154811061069c57600080fd5b906000526020600020016000915054906101000a900473ffffffffffffffffffffffffffffffffffffffff1681565b600260009054906101000a900473ffffffffffffffffffffffffffffffffffffffff1681565b6000600760003373ffffffffffffffffffffffffffffffffffffffff1673ffffffffffffffffffffffffffffffffffffffff16815260200190815260200160002090508060050160009054906101000a900460ff1615610786576040517f08c379a000000000000000000000000000000000000000000000000000000000815260040161077d9061262c565b60405180910390fd5b60008160040154036107cd576040517f08c379a00000000000000000000000000000000000000000000000000000000081526004016107c490612698565b60405180910390fd5b60018160050160006101000a81548160ff0219169083151502179055508181600601819055506005339080600181540180825580915050600190039060005260206000200160009091909190916101000a81548173ffffffffffffffffffffffffffffffffffffffff021916908373ffffffffffffffffffffffffffffffffffffffff1602179055508060040154600460008573ffffffffffffffffffffffffffffffffffffffff1673ffffffffffffffffffffffffffffffffffffffff16815260200190815260200160002060040160008282546108ac91906126e7565b92505081905550505050565b6060600380548060200260200160405190810160405280929190818152602001828054801561093c57602002820191906000526020600020905b8160009054906101000a900473ffffffffffffffffffffffffffffffffffffffff1673ffffffffffffffffffffffffffffffffffffffff16815260200190600101908083116108f2575b5050505050905090565b6005818154811061095657600080fd5b906000526020600020016000915054906101000a900473ffffffffffffffffffffffffffffffffffffffff1681565b60046020528060005260406000206000915090508060000154908060010180546109ae906122ad565b80601f01602080910402602001604051908101604052809291908181526020018280546109da906122ad565b8015610a275780601f106109fc57610100808354040283529160200191610a27565b820191906000526020600020905b815481529060010190602001808311610a0a57829003601f168201915b505050505090806002018054610a3c906122ad565b80601f0160208091040260200160405190810160405280929190818152602001828054610a68906122ad565b8015610ab55780601f10610a8a57610100808354040283529160200191610ab5565b820191906000526020600020905b815481529060010190602001808311610a9857829003601f168201915b505050505090806003018054610aca906122ad565b80601f0160208091040260200160405190810160405280929190818152602001828054610af6906122ad565b8015610b435780601f10610b1857610100808354040283529160200191610b43565b820191906000526020600020905b815481529060010190602001808311610b2657829003601f168201915b5050505050908060040154908060050160009054906101000a900473ffffffffffffffffffffffffffffffffffffffff1690806006018054610b84906122ad565b80601f0160208091040260200160405190810160405280929190818152602001828054610bb0906122ad565b8015610bfd5780601f10610bd257610100808354040283529160200191610bfd565b820191906000526020600020905b815481529060010190602001808311610be057829003601f168201915b5050505050905087565b60606005805480602002602001604051908101604052809291908181526020018280548015610c8b57602002820191906000526020600020905b8160009054906101000a900473ffffffffffffffffffffffffffffffffffffffff1673ffffffffffffffffffffffffffffffffffffffff1681526020019060010190808311610c41575b5050505050905090565b6007602052806000526040600020600091509050806000015490806001018054610cbe906122ad565b80601f0160208091040260200160405190810160405280929190818152602001828054610cea906122ad565b8015610d375780601f10610d0c57610100808354040283529160200191610d37565b820191906000526020600020905b815481529060010190602001808311610d1a57829003601f168201915b505050505090806002018054610d4c906122ad565b80601f0160208091040260200160405190810160405280929190818152602001828054610d78906122ad565b8015610dc55780601f10610d9a57610100808354040283529160200191610dc5565b820191906000526020600020905b815481529060010190602001808311610da857829003601f168201915b5050505050908060030160009054906101000a900473ffffffffffffffffffffffffffffffffffffffff16908060040154908060050160009054906101000a900460ff1690806006015490806007018054610e1f906122ad565b80601f0160208091040260200160405190810160405280929190818152602001828054610e4b906122ad565b8015610e985780601f10610e6d57610100808354040283529160200191610e98565b820191906000526020600020905b815481529060010190602001808311610e7b57829003601f168201915b5050505050905088565b60018060000154905081565b60606006805480602002602001604051908101604052809291908181526020018280548015610f3257602002820191906000526020600020905b8160009054906101000a900473ffffffffffffffffffffffffffffffffffffffff1673ffffffffffffffffffffffffffffffffffffffff1681526020019060010190808311610ee8575b5050505050905090565b60608060006060600060606000600460008973ffffffffffffffffffffffffffffffffffffffff1673ffffffffffffffffffffffffffffffffffffffff168152602001908152602001600020600101600460008a73ffffffffffffffffffffffffffffffffffffffff1673ffffffffffffffffffffffffffffffffffffffff168152602001908152602001600020600201600460008b73ffffffffffffffffffffffffffffffffffffffff1673ffffffffffffffffffffffffffffffffffffffff16815260200190815260200160002060000154600460008c73ffffffffffffffffffffffffffffffffffffffff1673ffffffffffffffffffffffffffffffffffffffff168152602001908152602001600020600301600460008d73ffffffffffffffffffffffffffffffffffffffff1673ffffffffffffffffffffffffffffffffffffffff16815260200190815260200160002060040154600460008e73ffffffffffffffffffffffffffffffffffffffff1673ffffffffffffffffffffffffffffffffffffffff168152602001908152602001600020600601600460008f73ffffffffffffffffffffffffffffffffffffffff1673ffffffffffffffffffffffffffffffffffffffff16815260200190815260200160002060050160009054906101000a900473ffffffffffffffffffffffffffffffffffffffff16868054611146906122ad565b80601f0160208091040260200160405190810160405280929190818152602001828054611172906122ad565b80156111bf5780601f10611194576101008083540402835291602001916111bf565b820191906000526020600020905b8154815290600101906020018083116111a257829003601f168201915b505050505096508580546111d2906122ad565b80601f01602080910402602001604051908101604052809291908181526020018280546111fe906122ad565b801561124b5780601f106112205761010080835404028352916020019161124b565b820191906000526020600020905b81548152906001019060200180831161122e57829003601f168201915b5050505050955083805461125e906122ad565b80601f016020809104026020016040519081016040528092919081815260200182805461128a906122ad565b80156112d75780601f106112ac576101008083540402835291602001916112d7565b820191906000526020600020905b8154815290600101906020018083116112ba57829003601f168201915b505050505093508180546112ea906122ad565b80601f0160208091040260200160405190810160405280929190818152602001828054611316906122ad565b80156113635780601f1061133857610100808354040283529160200191611363565b820191906000526020600020905b81548152906001019060200180831161134657829003601f168201915b505050505091509650965096509650965096509650919395979092949650565b60008060000154905081565b600060608060006060600080600760008973ffffffffffffffffffffffffffffffffffffffff1673ffffffffffffffffffffffffffffffffffffffff16815260200190815260200160002060000154600760008a73ffffffffffffffffffffffffffffffffffffffff1673ffffffffffffffffffffffffffffffffffffffff168152602001908152602001600020600101600760008b73ffffffffffffffffffffffffffffffffffffffff1673ffffffffffffffffffffffffffffffffffffffff168152602001908152602001600020600201600760008c73ffffffffffffffffffffffffffffffffffffffff1673ffffffffffffffffffffffffffffffffffffffff16815260200190815260200160002060030160009054906101000a900473ffffffffffffffffffffffffffffffffffffffff16600760008d73ffffffffffffffffffffffffffffffffffffffff1673ffffffffffffffffffffffffffffffffffffffff168152602001908152602001600020600701600760008e73ffffffffffffffffffffffffffffffffffffffff1673ffffffffffffffffffffffffffffffffffffffff16815260200190815260200160002060040154600760008f73ffffffffffffffffffffffffffffffffffffffff1673ffffffffffffffffffffffffffffffffffffffff16815260200190815260200160002060050160009054906101000a900460ff168580546115a6906122ad565b80601f01602080910402602001604051908101604052809291908181526020018280546115d2906122ad565b801561161f5780601f106115f45761010080835404028352916020019161161f565b820191906000526020600020905b81548152906001019060200180831161160257829003601f168201915b50505050509550848054611632906122ad565b80601f016020809104026020016040519081016040528092919081815260200182805461165e906122ad565b80156116ab5780601f10611680576101008083540402835291602001916116ab565b820191906000526020600020905b81548152906001019060200180831161168e57829003601f168201915b505050505094508280546116be906122ad565b80601f01602080910402602001604051908101604052809291908181526020018280546116ea906122ad565b80156117375780601f1061170c57610100808354040283529160200191611737565b820191906000526020600020905b81548152906001019060200180831161171a57829003601f168201915b505050505092509650965096509650965096509650919395979092949650565b3373ffffffffffffffffffffffffffffffffffffffff16600260009054906101000a900473ffffffffffffffffffffffffffffffffffffffff1673ffffffffffffffffffffffffffffffffffffffff16146117e7576040517f08c379a00000000000000000000000000000000000000000000000000000000081526004016117de9061278d565b60405180910390fd5b6117f1600161199f565b60006117fd60016119b5565b90506000600460008873ffffffffffffffffffffffffffffffffffffffff1673ffffffffffffffffffffffffffffffffffffffff168152602001908152602001600020905085816001019081611853919061248a565b5084816002019081611865919061248a565b5081816000018190555083816003019081611880919061248a565b5060008160040181905550868160050160006101000a81548173ffffffffffffffffffffffffffffffffffffffff021916908373ffffffffffffffffffffffffffffffffffffffff160217905550828160060190816118df919061248a565b506003879080600181540180825580915050600190039060005260206000200160009091909190916101000a81548173ffffffffffffffffffffffffffffffffffffffff021916908373ffffffffffffffffffffffffffffffffffffffff160217905550817fd297f12b256bb8485a6013fb5e302017018123e99a0ebb20756c09e1707b4b9087878785600401548c89604051611981969594939291906127ad565b60405180910390a250505050505050565b6000600380549050905090565b6001816000016000828254019250508190555050565b600081600001549050919050565b6000604051905090565b600080fd5b600080fd5b600073ffffffffffffffffffffffffffffffffffffffff82169050919050565b6000611a02826119d7565b9050919050565b611a12816119f7565b8114611a1d57600080fd5b50565b600081359050611a2f81611a09565b92915050565b600080fd5b600080fd5b6000601f19601f8301169050919050565b7f4e487b7100000000000000000000000000000000000000000000000000000000600052604160045260246000fd5b611a8882611a3f565b810181811067ffffffffffffffff82111715611aa757611aa6611a50565b5b80604052505050565b6000611aba6119c3565b9050611ac68282611a7f565b919050565b600067ffffffffffffffff821115611ae657611ae5611a50565b5b611aef82611a3f565b9050602081019050919050565b82818337600083830152505050565b6000611b1e611b1984611acb565b611ab0565b905082815260208101848484011115611b3a57611b39611a3a565b5b611b45848285611afc565b509392505050565b600082601f830112611b6257611b61611a35565b5b8135611b72848260208601611b0b565b91505092915050565b60008060008060808587031215611b9557611b946119cd565b5b6000611ba387828801611a20565b945050602085013567ffffffffffffffff811115611bc457611bc36119d2565b5b611bd087828801611b4d565b935050604085013567ffffffffffffffff811115611bf157611bf06119d2565b5b611bfd87828801611b4d565b925050606085013567ffffffffffffffff811115611c1e57611c1d6119d2565b5b611c2a87828801611b4d565b91505092959194509250565b6000819050919050565b611c4981611c36565b82525050565b6000602082019050611c646000830184611c40565b92915050565b611c7381611c36565b8114611c7e57600080fd5b50565b600081359050611c9081611c6a565b92915050565b600060208284031215611cac57611cab6119cd565b5b6000611cba84828501611c81565b91505092915050565b611ccc816119f7565b82525050565b6000602082019050611ce76000830184611cc3565b92915050565b60008060408385031215611d0457611d036119cd565b5b6000611d1285828601611a20565b9250506020611d2385828601611c81565b9150509250929050565b600081519050919050565b600082825260208201905092915050565b6000819050602082019050919050565b611d62816119f7565b82525050565b6000611d748383611d59565b60208301905092915050565b6000602082019050919050565b6000611d9882611d2d565b611da28185611d38565b9350611dad83611d49565b8060005b83811015611dde578151611dc58882611d68565b9750611dd083611d80565b925050600181019050611db1565b5085935050505092915050565b60006020820190508181036000830152611e058184611d8d565b905092915050565b600060208284031215611e2357611e226119cd565b5b6000611e3184828501611a20565b91505092915050565b600081519050919050565b600082825260208201905092915050565b60005b83811015611e74578082015181840152602081019050611e59565b60008484015250505050565b6000611e8b82611e3a565b611e958185611e45565b9350611ea5818560208601611e56565b611eae81611a3f565b840191505092915050565b600060e082019050611ece600083018a611c40565b8181036020830152611ee08189611e80565b90508181036040830152611ef48188611e80565b90508181036060830152611f088187611e80565b9050611f176080830186611c40565b611f2460a0830185611cc3565b81810360c0830152611f368184611e80565b905098975050505050505050565b60008115159050919050565b611f5981611f44565b82525050565b600061010082019050611f75600083018b611c40565b8181036020830152611f87818a611e80565b90508181036040830152611f9b8189611e80565b9050611faa6060830188611cc3565b611fb76080830187611c40565b611fc460a0830186611f50565b611fd160c0830185611c40565b81810360e0830152611fe38184611e80565b90509998505050505050505050565b600060e082019050818103600083015261200c818a611e80565b905081810360208301526120208189611e80565b905061202f6040830188611c40565b81810360608301526120418187611e80565b90506120506080830186611c40565b81810360a08301526120628185611e80565b905061207160c0830184611cc3565b98975050505050505050565b600060e082019050612092600083018a611c40565b81810360208301526120a48189611e80565b905081810360408301526120b88188611e80565b90506120c76060830187611cc3565b81810360808301526120d98186611e80565b90506120e860a0830185611c40565b6120f560c0830184611f50565b98975050505050505050565b600080600080600060a0868803121561211d5761211c6119cd565b5b600061212b88828901611a20565b955050602086013567ffffffffffffffff81111561214c5761214b6119d2565b5b61215888828901611b4d565b945050604086013567ffffffffffffffff811115612179576121786119d2565b5b61218588828901611b4d565b935050606086013567ffffffffffffffff8111156121a6576121a56119d2565b5b6121b288828901611b4d565b925050608086013567ffffffffffffffff8111156121d3576121d26119d2565b5b6121df88828901611b4d565b9150509295509295909350565b7f4f6e6c79206f7267616e697a65722063616e2063726561746520766f7465722060008201527f6e6f7420796f7500000000000000000000000000000000000000000000000000602082015250565b6000612248602783611e45565b9150612253826121ec565b604082019050919050565b600060208201905081810360008301526122778161223b565b9050919050565b7f4e487b7100000000000000000000000000000000000000000000000000000000600052602260045260246000fd5b600060028204905060018216806122c557607f821691505b6020821081036122d8576122d761227e565b5b50919050565b60008190508160005260206000209050919050565b60006020601f8301049050919050565b600082821b905092915050565b6000600883026123407fffffffffffffffffffffffffffffffffffffffffffffffffffffffffffffffff82612303565b61234a8683612303565b95508019841693508086168417925050509392505050565b6000819050919050565b600061238761238261237d84611c36565b612362565b611c36565b9050919050565b6000819050919050565b6123a18361236c565b6123b56123ad8261238e565b848454612310565b825550505050565b600090565b6123ca6123bd565b6123d5818484612398565b505050565b5b818110156123f9576123ee6000826123c2565b6001810190506123db565b5050565b601f82111561243e5761240f816122de565b612418846122f3565b81016020851015612427578190505b61243b612433856122f3565b8301826123da565b50505b505050565b600082821c905092915050565b600061246160001984600802612443565b1980831691505092915050565b600061247a8383612450565b9150826002028217905092915050565b61249382611e3a565b67ffffffffffffffff8111156124ac576124ab611a50565b5b6124b682546122ad565b6124c18282856123fd565b600060209050601f8311600181146124f457600084156124e2578287015190505b6124ec858261246e565b865550612554565b601f198416612502866122de565b60005b8281101561252a57848901518255600182019150602085019450602081019050612505565b868310156125475784890151612543601f891682612450565b8355505b6001600288020188555050505b505050505050565b600060e0820190508181036000830152612576818a611e80565b9050818103602083015261258a8189611e80565b90506125996040830188611cc3565b6125a66060830187611c40565b6125b36080830186611f50565b6125c060a0830185611c40565b81810360c08301526125d28184611e80565b905098975050505050505050565b7f596f75206861766520616c726561647920766f74656400000000000000000000600082015250565b6000612616601683611e45565b9150612621826125e0565b602082019050919050565b6000602082019050818103600083015261264581612609565b9050919050565b7f596f752068617665206e6f20726967687420746f20766f746500000000000000600082015250565b6000612682601983611e45565b915061268d8261264c565b602082019050919050565b600060208201905081810360008301526126b181612675565b9050919050565b7f4e487b7100000000000000000000000000000000000000000000000000000000600052601160045260246000fd5b60006126f282611c36565b91506126fd83611c36565b9250828201905080821115612715576127146126b8565b5b92915050565b7f4f6e6c79206f7267616e697a65722063616e20617574686f72697a656420636160008201527f6e64696461746500000000000000000000000000000000000000000000000000602082015250565b6000612777602783611e45565b91506127828261271b565b604082019050919050565b600060208201905081810360008301526127a68161276a565b9050919050565b600060c08201905081810360008301526127c78189611e80565b905081810360208301526127db8188611e80565b905081810360408301526127ef8187611e80565b90506127fe6060830186611c40565b61280b6080830185611cc3565b81810360a083015261281d8184611e80565b905097965050505050505056fea264697066735822122003cad4b69f7cfe53bd8a25226d522ecdbc71347dcf0870d81a394a15c7c8e6a464736f6c63430008120033",
  "linkReferences": {},
  "deployedLinkReferences": {}
}